:020000040800F2
:10000000505B0020A90300082F5C0008FD4E00088B
:100010002D5C000805300008A56B000800000000FA
:10002000000000000000000000000000E9020008DD
:10003000C5300008000000004503000825630008E3
:10004000C3030008C3030008C3030008C303000878
:10005000C3030008C3030008C3030008C303000868
:10006000C3030008C3030008C3030008C303000858
:10007000C3030008C3030008C3030008C303000848
:100080000930000815300008C30300080000000014
:10009000000000000000000000000000C303000892
:1000A000C3030008C3030008E5630008C303000896
:1000B000F1630008FD63000809640008C303000839
:1000C000C3030008C3030008C3030008C3030008F8
:1000D000C3030008C3030008396B000800000000D8
:1000E000C3030008C3030008C303000800000000A6
:1000F000000000000000000000000000C303000832
:1001000000000000C3030008C3030008C303000885
:1001100000000000000000000000000000000000DF
:10012000C3030008C3030008C3030008C303000897
:10013000C3030008000000000000000000000000F1
:10014000000000000000000000000000C3030008E1
:10015000C3030008C3030008C3030008C303000867
:10016000C3030008C30300080000000000000000F3
:10017000000000000000000000000000000000007F
:1001800000000000C30300080000000000000000A1
:10019000C303000800F002F800F096F80AA090E807
:1001A000000C82448344AAF10107DA4501D100F032
:1001B0008BF8AFF2090EBAE80F0013F0010F18BF69
:1001C000FB1A43F0010318477C9900009C9900003A
:1001D000103A24BF78C878C1FAD8520724BF30C873
:1001E00030C144BF04680C60704700000023002445
:1001F00000250026103A28BF78C1FBD8520728BF37
:1002000030C148BF0B6070476E2900F068867029C6
:1002100000F01B83662909F00A83652909F007832A
:10022000672909F00483612909F0038303681B0A25
:1002300028BF41F08001692900F08C82642900F018
:100240008982752900F086826F2901F064817829FE
:1002500000F0E782E92901F0FF80E42901F0FC8049
:10026000F52901F0F980EF2901F06181F82900F00A
:10027000E6820368DB0928BF41F08001632901F0B1
:100280008080732901F08580E32901F0B986F32984
:1002900001F0BE86002070471FB509F0BBFA9DE84B
:1002A000030000F07BFD01F077FC0400002000213A
:1002B00009F062F8401C60600020002109F072F82B
:1002C000E0601FBD10B510BD01F090FF1146FFF7B3
:1002D000E3FF06F039FF02F0F1F903B4FFF7F2FF94
:1002E00003BC02F021FA00002C4B19680868B0E842
:1002F000F04F80F30988BFF36F8F4FF0000080F359
:10030000118870470000000008480068006880F30A
:1003100008884FF0000080F3148862B661B6BFF31E
:100320004F8FBFF36F8F00DF00BF00BF08ED00E00D
:10033000DFF80C00016841F470010160704700BFF4
:1003400088ED00E0EFF30980BFF36F8F134B1A685D
:100350001EF0100F08BF20ED108A20E9F04F10604A
:1003600009B44FF0500080F31188BFF34F8FBFF3F3
:100370006F8F08F0D9F94FF0000080F3118809BCA5
:1003800019680868B0E8F04F1EF0100F08BFB0EC15
:10039000108A80F30988BFF36F8F704748000020F0
:1003A000EFF305807047000009488047094800477F
:1003B000FEE7FEE7FEE7FEE7FEE7FEE7FEE7FEE715
:1003C000FEE7FEE704480549054A064B7047000072
:1003D000D56300089501000850550020505B0020AF
:1003E000505700205057002070B5064600F0B6FC6C
:1003F000056806F10B0020F00704B4429CBF002002
:1004000070BD2B466A68BAB11068A04210D304F1DF
:10041000080188423CBF5068586007D351681019E2
:1004200041601168091B016058601460101D70BDA7
:1004300013465268002AE7D12146284600F09AFC6C
:100440000028DED170BD70B50446051F00F086FCA3
:100450000068002C14BF446870BD002C18BFAC426B
:100460003CBF20466468F8D301680A18AA4218BF46
:10047000456003D12A680546114401602868411986
:10048000A1421CBF6C6070BD61686960216808444E
:10049000286070BD70B50D460646041F00F05EFC76
:1004A000D0F800C0C5B1E6B105F10B0020F007039C
:1004B000AB423CBF002070BD2068984238BFDCF8DA
:1004C000042013D3C11A08292FD3E01840F8041BC5
:1004D0002360FFF7B8FF28E03046FFF7B4FF0020A5
:1004E00070BD2846BDE87040FFF77EBF002A18BFE8
:1004F000A2423CBF94465268F8D30119914216D1EA
:1005000011680844984212D3C11A08293CBF2060E0
:10051000506808D35168E01841602168126811449E
:10052000C91A01602360CCF80400201D70BD181F9B
:10053000FFF75AFF050007D021680A1F211D00F0B0
:100540003DFB201DFFF77FFF284670BD53EA020CDC
:1005500000F069802DE9F04B4FF00006002B1FBF23
:10056000B3FA83F503FA05F424FA05F65E4012BFE8
:100570001643B2FA82F502FA05F4C5F120051EBF52
:1005800022FA05FC44EA0C04203556EA044C4FEAF2
:10059000144418BF641C4FF000084FF0000990424B
:1005A00071EB030C39D3002919BFB1FA81F701FAB5
:1005B00007F6B0FA80F700FA07F6C7F120071EBF6A
:1005C00020FA07FC46EA0C062037B6FBF4FCA7EB42
:1005D0000507103F07F01F0BCBF120060CFA0BFBB1
:1005E0002CFA06F644BFB3460026202FA4BF5E4671
:1005F0004FF0000B5BEA060C08BF4FF0010B19EB44
:100600000B09ABFB027C48EB0608C01B06FB02CCC7
:100610000BFB03CC71EB0C01C1E70B4602464146D4
:100620004846BDE8F08B13B54FF000004FF00001D5
:10063000AFF30080BDE81C40704710B5044600F0E1
:1006400085FB0068005DC00602D504F1200010BDE6
:10065000204610BD7CB51D4616460C00009001D00A
:100660002044401E074B7B442A4669460190304691
:1006700000F05DFE05461CB10020694600F06AFEF0
:1006800028467CBDF50C00000FB41CB5084B06AA2B
:100690007B4469460090059800F049FE044600201E
:1006A000694600F057FE20461CBC5DF814FB0000B4
:1006B000C10C000070B5044685690068C10601D50B
:1006C000302600E02026C00707D070BDD4E9012104
:1006D00030469047206A401C20626D1EF6D570BDE2
:1006E00070B5044685690078C00707D170BDD4E9AC
:1006F000012120209047206A401C20626D1EF6D503
:1007000070BD70B50C460546012A05D028788006D4
:1007100000D5EA69002302E0012305E05B1C934257
:1007200002D2E05C0028F9D1A869E618C01AA861D5
:10073000286A184428622846FFF7BCFF04E0D5E980
:10074000012114F8010B9047B442F8D32846FFF773
:10075000C7FF70BD2DE9F0410646002410687529D9
:10076000314616A510D000F04FFB002802DA4042B7
:1007700013A507E031688A0701D512A502E04907F1
:1007800004D511A5012401E000F047FB00210A2255
:1007900006F1240709E0B0FBF2FCB0FBF2F302FB28
:1007A0001C00303078541846491C0028F3D12346E9
:1007B0002A463046BDE8F04100F038BB000000009A
:1007C0002D0000002B00000020000000F0B40D46BA
:1007D0000188090502D5214C7C4402E01F4C7C4471
:1007E0000E34002100F1240608E002F00F07120980
:1007F000E75D42EA03721B097754491C52EA03077A
:10080000F3D102780023120704D5702D06D009B168
:10081000022311342246F0BC00F008BB012310343F
:10082000F8E770B504460D462146106800F0F5FA69
:10083000024629462046BDE870400023C6E7D21D87
:1008400022F00703D3E90023C0E70368126843F0EE
:10085000200303600823C3610023B7E7149200005C
:100860002DE9F05F894604464FF0000ADFF874B1C5
:10087000FB44C0F820A02046E1688847002874D0D7
:10088000252806D0D4E901219047206A401C206227
:10089000F1E700265F462046E168884720280546A4
:1008A00007DB312D05D2781910F8200C08B106436A
:1008B000F1E7B00701D526F00406C4F81CA0002714
:1008C000C4F818A02A2D09D0284606F0DCFA38B35F
:1008D00004EB8708303DC8F8185019E059F8041B9C
:1008E000204604EB87029161E1688847012F0546A5
:1008F00018D1E069002820DA26F020061DE0D8F89B
:10090000180000EB800005EB40003038C8F81800F4
:100910002046E1688847054606F0B5FA0028EED182
:10092000012F0AD02E2D08D12046E16888477F1C70
:100930000546022F46F02006C4DBA069002803DA32
:10094000404246F00106A061F00701D026F01006F3
:100950006C2D0BD0682D09D04C2D39D06A2D35D097
:10096000742D35D07A2D33D016E038E0E1682F466B
:1009700020468847B842054609D16C2F26D04FF44F
:100980008060E168064320468847054604E06C2FF6
:100990001AD04FF4807006430DB3A5F14100192819
:1009A00002D8203546F400664A462946204626608D
:1009B0004E46FFF729FC80B101280BD0F61D26F02A
:1009C000070000F1080956E74020E4E78020D8E757
:1009D0000020D6E706F104094DE7284652E7206AD1
:1009E000BDE8F09FA491000070B5064600F0BAF98A
:1009F0000468054630460A22002101F091F82C6077
:100A000070BD401ECAB210F8011F8A4202D00029F0
:100A1000F9D10020704710B5431E13F8014F002C88
:100A2000FBD105E011F8014B002C03F8014B03D07A
:100A3000521EF7D20021197010BD30B505460B4685
:100A40002A4613F8014B12F8010B08B1A042F8D066
:100A50001CB1002802D06D1CF1E7284630BD10B54E
:100A6000431C02E010F8011B71B18107FAD14FF06D
:100A7000013202C88C1A8C4314EAC211F9D0C01A90
:100A80000A0603D0C01E10BDC01A10BD0A0401D052
:100A9000801E10BD0902FCD0401E10BD40EA0103BB
:100AA00070B59B072ED14FF00136042A2AD308C80F
:100AB00010C99D1B9D43121F15EAC61517D0D8B249
:100AC000E1B2401A50EA056110D198B2A1B2401AC1
:100AD00050EA05410AD123F07F4024F07F41401ABB
:100AE00050EA052102D1180EA0EB146070BDA3429C
:100AF000DBD018BA21BA884201D9012070BD4FF06D
:100B0000FF3070BD0AB9002070BD10F8013B11F82C
:100B1000014B63B1A3420AD1521E08D010F8013B29
:100B200011F8014B1BB1A34201D1521EEDD1181B8C
:100B300070BD032A40F2308010F0030C00F01580E5
:100B400011F8013BBCF1020F624498BF11F801CBD0
:100B500000F8013B38BF11F8013BA2F1040298BF35
:100B600000F801CB38BF00F8013B11F0030300F09F
:100B70002580083AC0F0088051F8043B083A51F843
:100B800004CBA0E80810F5E7121D5CBF51F8043B48
:100B900040F8043BAFF30080D20724BF11F8013BBB
:100BA00011F801CB48BF11F8012B24BF00F8013B1D
:100BB00000F801CB48BF00F8012B704710B5203A70
:100BC000C0F00B80B1E81850203AA0E81850B1E806
:100BD0001850A0E81850BFF4F5AF5FEA027C24BFBC
:100BE000B1E81850A0E8185044BF18C918C0BDE8B3
:100BF00010405FEA827C24BF51F8043B40F8043B7C
:100C000008BF7047D20728BF31F8023B48BF11F830
:100C1000012B28BF20F8023B48BF00F8012B70478A
:100C200002F0FF0343EA032242EA024200F002B864
:100C30004FF000020429C0F0128010F0030C00F005
:100C40001B80CCF1040CBCF1020F18BF00F8012B83
:100C5000A8BF20F8022BA1EB0C0100F00DB85FEA51
:100C6000C17C24BF00F8012B00F8012B48BF00F81D
:100C7000012B70474FF0000200B51346944696468C
:100C8000203922BFA0E80C50A0E80C50B1F120019F
:100C9000BFF4F7AF090728BFA0E80C5048BF0CC04D
:100CA0005DF804EB890028BF40F8042B08BF7047AB
:100CB00048BF20F8022B11F0804F18BF00F8012B1D
:100CC000704700004FF0013C50F8042B51F8043BF2
:100CD0009A4221D1A2EB0C03934313EACC1317D110
:100CE00050F8042B51F8043B9A4215D1A2EB0C03A7
:100CF000934313EACC130BD150F8042B51F8043B67
:100D00009A4209D1A2EB0C03934313EACC13DBD034
:100D10004FF00000704700BFD01A01BAB1FA81F15C
:100D200001F0180122FA01F0CB40C1F12001DBB241
:100D3000C0B2C01A2CFA01F3D11A914311EAC311BF
:100D4000E6D17047704770477047000010B500F05B
:100D500023FF001D10BD00BF218600000048704722
:100D6000F454002000487047EC540020704770474E
:100D70007047704738B504460A4600206946AFF30D
:100D80000080002808BF38BD02460099204600F0C8
:100D900007FF012038BD012001F020BAF8B5AFF3FC
:100DA0000080054600200C46102000BF0646A8190A
:100DB000A0420DD9324669460020AFF300800700FB
:100DC00008BF01F00BFA0098A04218BF0546C419ED
:100DD000FFF7C4FF05600746F01D20F00700461925
:100DE000284600F00AF8B44208BFF8BDA21B3146FD
:100DF0003868BDE8F84000F0D3BE00210160C0E9CA
:100E0000011070471020704709684A0501D540B2AB
:100E10007047C905FCD500B2704709684A0501D57D
:100E2000C0B27047C905FCD580B270472DE9F047C4
:100E30000D4699469246044600F12408016888064A
:100E400004D5E06921F01001216000E00120A842F2
:100E500001DD471B00E00027A1697A1902EB0900B8
:100E6000081AA0612078C00602D42046FFF722FCB1
:100E7000002608E0D4E901211AF806009047206A0C
:100E8000401C761C20624E45F4DB2078C0060AD553
:100E90002046FFF70FFC06E0D4E9012130209047FF
:100EA000206A401C2062381EA7F10107F4DC07E02D
:100EB000D4E9012118F805009047206A401C2062FF
:100EC000281EA5F10105F3DC2046FFF709FC207878
:100ED000000602D50220BDE8F0870120FBE711687B
:100EE0000268006A530501D508700AE0D30501D5F0
:100EF000088006E0130603D5C217C1E9000200E02E
:100F000008600120704770472DE9FF4F0C461E46D0
:100F10004FF0FF378BB0D2E90001DDF860800A9016
:100F20008A46C1F30A5505B93D46002108464FF0EF
:100F30000000BAF1000F00F4400005DA00EB800079
:100F40004FF4400101EA50004FEA9059B9F1010F06
:100F500000DDB9460A9850EA4A000ED044F6105017
:100F6000A5F2FF3545432F14B8F1000F1ED075428E
:100F7000291E1EDDC9F100021CE0B8F1010F4FF07F
:100F8000000001D0302103E0F24305E02154401C71
:100F9000B042FBDB30460022002121540B99C1F8FE
:100FA0000880C1E900200FB0BDE8F08FBD1B6D1CAB
:100FB000DEE74A4600DA694206A801F07DF806AB92
:100FC00093E8070003AB83E8070050460A9901F055
:100FD000E4FB8DE80700A0F500501F38009003984F
:100FE000002D0ADD42F21F014A460844002303A9EE
:100FF0000390684601F090FE09E0A0F500504A46D3
:101000001F38002303A90390684601F0AFFE8DE866
:1010100007000004000C03D04FF0FF30410800E04F
:101020001046B8F1000F03D00022009215461EE0D2
:10103000751E05D400F0CEFD303262556D1EF9D517
:10104000B3460122084302D000227F1C04E020782E
:10105000302801D100227F1E002A099784D01DE08C
:10106000112D07DA00F0B6FD303262556D1C50EAE2
:101070000102F5D1084302D00098C8B10EE000216A
:10108000681E05E0235C625C63542254401E491CC8
:101090008142F7DBAB46A81B401E0990002004F8F4
:1010A0000B000B98099AC0F80880C0E9002B7AE77A
:1010B00011264FF0000857E72DE9F04F8846044607
:1010C000D21D22F0070191B0D1E90001CDE90A015A
:1010D00005F084FD02460B98C00F01D02D2007E0DB
:1010E0002068810701D52B2002E0202101EAC00001
:1010F000032A099001D0072A05DB03464146204612
:1011000000F034FF0BE12078800601D5E06900E0B3
:101110000620B8F1650F814606D0B8F1660F18D0E9
:10112000B8F1670F70D131E00020B9F1110F0090D4
:1011300001DB112301E009F101030AAA01A90CA8AE
:10114000FFF7E2FEDDE90C70002609F10105834698
:1011500047E001204B4600904FF000470AAA01A942
:101160000CA8FFF7D1FEDDE90DB00C995D46002615
:1011700010B909F101000D18B9EB050003D4C0F155
:10118000FF3609F10105A5EB09002BE0B9F1010FCC
:1011900001DA4FF001090020B9F1110F0090484623
:1011A00001DD112300E003460AAA01A90CA8FFF7FC
:1011B000ABFEDDE90C704D46002683462078000723
:1011C0000AD4AB4500DA5D4601A8012D04DD4119C2
:1011D00011F8011C302907D04F4502DA17F1040F2E
:1011E00004DA012082460FE06D1EEEE7002F02DCDC
:1011F000ED1B3E4403E0781CA84200DD7D1CB81BBB
:1012000000F1010A4FF000472078000703D4AA45F7
:1012100001DB4FF0FF3A0021B7F1004F0DF1430819
:101220008DF8431024D002202B23002F01DA7F42B7
:101230002D230A21021EA0F1010000DC5FB197FB03
:10124000F1FC97FBF1F201FB1C7C17460CF1300C12
:1012500008F801CDEEE7A8F1010003702188090527
:1012600001D5452100E06521A0F1010800F8011C2D
:1012700009980FA9A1EB0807FF1D00B10120411932
:1012800001EBEA70A1693844081A401EA061207879
:10129000C00602D42046FFF70DFA099828B1D4E918
:1012A00001219047206A401C20622078C00622D588
:1012B0002046FFF7FFF91EE0002E04DBB34502DDF8
:1012C00001A8805D00E03020D4E901219047206A28
:1012D000401C2062761CAAF101005FEA000A0AD1D4
:1012E00000F05AFCC0680168405CD4E901219047D5
:1012F000206A401C2062281EA5F10105DCDC07E005
:10130000D4E9012118F8010B9047206A401C2062A3
:10131000381EA7F10107F3DC2046FFF7E1F90320AF
:1013200011B041E601694A1C02610878704700B5B6
:101330008FB0CDE901310021059105497944CDE90E
:10134000031011466846FFF78BFA0FB000BD00008E
:10135000E5FFFFFF0A6802F8010B0A607047D1E958
:1013600000239A4202D2531C0B601070704710B5D4
:10137000436913B1AFF3008001E0FFF7C2F9012028
:1013800010BD127800F124010A7000224A70012277
:10139000EDE711684FF0FF32E9E700002DE9FF5F4C
:1013A00015468A460446DFF8AC80F8440027D8E9A1
:1013B00000103E46CDE9001010E03AF816106A46DB
:1013C00002A800F0EBFE411C07D02178890603D566
:1013D000E269391891420DD80744761C20788006BE
:1013E00002D5E069B84205DDAE42E6DB3AF8160008
:1013F0000028E2D1A069C01BA0612046FFF75AF97E
:10140000D8E90010CDE90010002017E03AF81810D4
:101410006A4602A800F0C2FEB0F1FF3F81460BD041
:1014200000250DF1080B05E0D4E901211BF80500AA
:1014300090476D1C4D45F7D308F10100B04280463E
:10144000E4DB206A384420622046FFF749F9BDE812
:10145000FF9F00007E8600002DE9F0418046D21DEE
:1014600022F007020025D2E90002F52915A614D0C2
:10147000011E72F1000106DA0023D0EB030063EBDA
:10148000020211A608E0D8F800108B0701D50FA6BC
:1014900002E0490701D50EA601251146002408F1F6
:1014A000240704E000F096FB30323A55641C50EA01
:1014B0000102F7D12B46324621464046BDE8F041B5
:1014C000FFF7B4BC000000002D0000002B0000005E
:1014D0002000000030B4002100F1240408E002F0F4
:1014E0000705D208303542EA4372DB086554491CCF
:1014F00052EA0305F3D10468002310A2250707D59B
:10150000A40600D421B1C46901230DA2641EC461E4
:1015100030BCFFF78BBC10B5044621461068FFF7BE
:101520007CFC02462046BDE810400023D2E7D21DD5
:1015300022F00701D1E90023CCE700000000000001
:10154000300000002DE9FF4F06468BB00878FF28D9
:1015500006D0491C2D2805D000244FF0000908E0D2
:1015600000200CE00124F8E709EB8903491C00EB9B
:1015700043090878FF28F7D114B1C9F1000081466A
:10158000107800252C46AA4629462D2801D02B2864
:1015900004D1521C2D2813D0002082468B4610788F
:1015A000FF280FD04FF0000C0A21521CA5FB017838
:1015B00004FB018105FB0C11C5194BEB0104EEE79F
:1015C0000120EAE7002108464FF00000BAF1000FC1
:1015D00002D000EB80004008C0F38157012F01DDED
:1015E0004FF0FF370E9955EA040009EB01080BD0C4
:1015F0004FF0020918F5FA7F16DA4FEACA70002F89
:10160000706008DD012007E04FEACA70C6E900B04B
:101610000FB0BDE8F08F00203060FFF7A3FBC0F8EB
:1016200000901821084616E0B8F5FA7F18DD002F63
:1016300002DAF748784401E0F6487844D0E900102F
:10164000C6E9001040EACA707060FFF78BFBC0F873
:101650000090142108460FB0BDE8F04F08F0E4B840
:10166000002108464FF00000B8F10001099002DAAD
:10167000C7F1000200E03A4601DAC8F1000106A80D
:1016800000F01AFD06AB93E8070003AB83E8070000
:1016900044F23E005BEA04010090584604D144F253
:1016A0001E012C465D460091210C0904014306D120
:1016B0000099240444EA15442D041039009104F0E3
:1016C0007F41014306D10099240244EA15642D02AA
:1016D0000839009104F07041014306D100992401BA
:1016E00044EA15742D01091F009104F040410143A3
:1016F00006D10099A40044EA9574AD00891E0091BA
:1017000004F00041084304D100986D196441401E63
:1017100000904FF001033A466846B8F1000FCDE95A
:10172000014503A902DD01F036FB01E001F009FBF0
:10173000BAF1000F04460D4601D084F000440021A8
:1017400008464FF00000099940F2FF77484010F03A
:101750000C0F07D124F00040284303D0C4F30A50F3
:10176000B84212D1FFF7FEFAC0F80090C4F30A5055
:10177000B8420AD1A8487844D0E90010C6E9001060
:1017800004F000410843706042E7C6E900543FE7B7
:101790002DE9FF4F1F464FF0000A4FF0FF38454636
:1017A00091B0D7E90146CDF83CA000F0F5F9C0684A
:1017B0000168405C1090B96912986D1C8847396ABD
:1017C000814688470028F6D1B9F1FF3F0AD0002EA4
:1017D00024F4D06411DDB9F12B0F08D0B9F12D0F2D
:1017E0000BD102E0404615B013E744F48064B969B8
:1017F00012986D1C8847761E8146600504A901D5A4
:101800002D2000E02B20002E01F1010B0DF13008FE
:101810008DF810003FDDB9F1690F08D0B9F1490F1B
:1018200005D0B9F16E0F02D0B9F14E0F1CD13B4675
:1018300001A8009580E85002DDE912126FF0020065
:1018400008F05DF8C11CCED10EE0B96912986D1C8C
:10185000884781461398761E44F4007405600F98FB
:10186000401C002E0F9016DDB9F1300FEDD0B9F10C
:10187000780F02D0B9F1580F0DD10F9801280AD175
:101880003B46CDE90054DDE91212001F029608F034
:1018900034F8C11CA7D1109989453ED144F0800489
:1018A00006E01399681CAAF1010A44F40074086068
:1018B000B9696D1C1298761E884730288146F0D091
:1018C0002BE01099894505D1200603D4761E44F0FB
:1018D000800418E0484605F0D6FA08B3761E0DF1EC
:1018E00023018B4544F4007408D2A9F130000BF8B1
:1018F000010B200607D5AAF1010003E0200602D45F
:101900000AF101008246A00502D51399681C0860FF
:10191000B96912986D1C88478146002ED1DC53E0CE
:10192000002E51DDB9F1650F02D0B9F1450F4BD151
:10193000A00549D5B9696D1C1298761E24F440742F
:101940008847002E81460CDD2B2804D0B9F12D0FDD
:1019500007D144F48074B96912986D1C8847761ECB
:101960008146E00501D52D2100E02B2108F8011B5F
:10197000CDF8008021E0761E0DF13901884544F450
:1019800000740CD2A9F1300010F0FF0088F80000BC
:1019900002D10099884509D908F1010806E0E0055F
:1019A00001D51E4801E042F20F708246B9691298D3
:1019B0006D1C8847814613980560002E04DD48465B
:1019C00005F061FA0028D6D1F96912988847FF20FE
:1019D00053468BF8000088F8000000200A900B9016
:1019E00004AA0CA90AA8FFF7ADFDA00502D46FF068
:1019F0000100F8E614F0240F12D0E0071CD138687B
:101A0000DDE90A12031D3B600068C0E9001213E023
:101A10003485000026850000EA830000F1D8FFFF2E
:101A20000AA9684605F01CFAE00705D13868009A53
:101A3000011D3960006802602846D4E6426842B160
:101A4000016811F8013B23B1521EC0E9001218468B
:101A500070470121C160881E704742685AB1C3684F
:101A6000016843B983688B4205D0491E521CC0E906
:101A70000012002070474FF0FF3070470FB4002372
:101A800000B589B00CA900910B99CB60214B7B4428
:101A90000693214B7B44079304236FF00042CDE96A
:101AA00001321E4A7A446B4608920246002007F033
:101AB00022FF09B05DF814FB70B506464FF0FF3009
:101AC00015460C46324686B00091CDE901016946C3
:101AD0000020049004A8FFF7D1FF024604982118C3
:101AE00025B108B1084600E0204628600498002887
:101AF0000DD0002A02DD0098884208D03246081B2B
:101B000069460094CDE9010404A8FFF7B7FF06B0C9
:101B100070BD0000ABFFFFFFC3FFFFFFB701000078
:101B20002DE9F04791460F4680460446002614F8FA
:101B3000015B2DB1FFF70AF90068405DC007F6D1DF
:101B40002B2D02D02D2D18D0641E4A463946204632
:101B500000F062FA27B13968A14201D1C7F80080CC
:101B60004FF0020471050BD54042002803DDFFF75A
:101B7000F9F80460A007BDE8F08746F48066E4E762
:101B80000028F8DAFFF7EEF804606FF00040F2E7A3
:101B900000487047EC540020004870470C55002066
:101BA000034640688C46002818BF88423CBF034665
:101BB0004068F8D318681844884207D00CF1030035
:101BC00020F00700001D411A521A0146081D0A6044
:101BD000FEF739BC30B5B0F10A024FEA900E71F150
:101BE00000034EEA817EB0EB0E0061EB91014FEAFB
:101BF000101E4EEA017E10EB0E0041EB11114FEA70
:101C0000102E4EEA016E10EB0E0041EB11214FEA4F
:101C1000104E4EEA014E10EB0E0041EB1141401800
:101C200041F100014FEAD00040EA41704FEAD10192
:101C300010EB80054FEA810444EA907444EB010400
:101C40006D1944EB0404521BA3414FF0000348BF3D
:101C50000A3200D530BD401C41F1000130BD10B545
:101C60000446FFF773F80068005D00F0010010BD46
:101C70002DE9F04F04460D46D21D22F0070089B031
:101C8000D0E900974846394604F0A8FF0246F80F0D
:101C900001D02D2307E02068810701D52B2302E026
:101CA000202101EAC0038DF820300BB1012000E0B3
:101CB0000020032A824601D0072A04DB2946204659
:101CC00000F054F93FE12078800601D40D2500E0B2
:101CD000E569C7F30A560D2D49DA00214FEA175B73
:101CE00008464FF00000002F00F4400007DA00EB38
:101CF00080004FF4400100EBD07001EA60008115D4
:101D0000012901DD4FF0FF3100224FEA850CBCF1C3
:101D1000180F06D31346ACF118004FF08052C240A2
:101D200003E04FF4801323FA0CF30CF10C0CBCF11C
:101D3000200F04D3ACF1200C09FA0CF001E007FAF3
:101D40000CF000294FF0004801DD18B90FE00ED16A
:101D500040450CD319EB02095F4121B9404502D13E
:101D60009F4329EA0209BBEB175F00D0761C20884D
:101D7000000502D57B48784402E07A487844193857
:101D800008AA302302F80A30037C0AF10101002E70
:101D90000AF1020A53546A4602DC4FF0300101E0B6
:101DA0004FF031014FF001088DF8001002D0A6F27B
:101DB000FF3603E059EA470100D06B4E002D02DCEC
:101DC0002178090704D54FF002082E218DF8011063
:101DD000C44600210BE0C7F303433F01C35C491C29
:101DE0006D1E02F80830052908F1010801DA002DFE
:101DF000F1DC00210CE000EB1973491C1B786D1E0F
:101E0000082902F808304FEA091908F1010801DA37
:101E1000002DF0DC21688B0602D516E0A8F1010840
:101E2000E04505DD02EB080313F8013C302BF5D04B
:101E3000B8F1000F09DD02EB080313F8013C2E2B6B
:101E400003D1090701D4A8F10108002D05DD3E21C9
:101E500002F808106D1E08F10108407C002E02F8FF
:101E6000080008F1010804DA2D20764202F8080083
:101E700002E02B2002F808000A214FF47A70864213
:101E800008F101080BDB96FBF0F3303302F8083061
:101E900096FBF0F308F1010800FB136601E0642EE5
:101EA0000CDB642096FBF0F3303302F8083096FB2D
:101EB000F0F308F1010800FB136601E00A2E06DBCF
:101EC00096FBF1F0303002F8080008F1010896FBAB
:101ED000F1F001FB1060303002F80800A16908F150
:101EE000010808EB050202EB0A00081AA06120783D
:101EF000C00602D42046FEF7DDFB216A08AE01EBE6
:101F00000A00206204E0D4E9012116F8010B904791
:101F1000BAF1010AF7D22078C00602D52046FEF7B2
:101F2000C9FB6E4609E016F8010B3E280FD0D4E934
:101F300001219047206A401C2062B8F10108F2D2CA
:101F40002046FEF7CDFB09B00320BDE8F08F206AE4
:101F50002844206203E0D4E90121302090476D1E1F
:101F6000EBD3F8E7CD7C000002FCFFFF2DE9F04148
:101F70001F46044603260168072A01F4006004DBBB
:101F800008B116A505E016A503E008B115A500E007
:101F900015A521F010002060A069C01EA0610FB13E
:101FA000401EA0612046FEF785FB4FB1D4E9012118
:101FB00038469047206A401C2062C01C206206E020
:101FC000206AFAE7D4E9012115F8010B9047761E43
:101FD000F8D22046FEF784FBBDE8F0814E414E006A
:101FE0006E616E00494E4600696E660010B5436929
:101FF00013B1AFF3008001E0FFF7D0F9012010BD6D
:10200000128800F1240182840022C2840122EDE7BB
:1020100011684FF0FF32E9E72DE9F05F824615467F
:102020008B4600270AF10104B9460078302801D018
:102030009DB113E014F8010B0127782803D058282C
:1020400001D045B10AE00DB1102D07D1002714F8D9
:10205000010B102502E0082500E00A250026B04605
:102060000EE005FB080005FB06F101271FFA80F8CA
:1020700001EB1046B6F5803F00D3B94614F8010BCA
:10208000294600F0E3F80028EBDABBF1000F05D099
:102090000FB1641E00E05446CBF80040B9F1000FC8
:1020A00006D0FEF75FFE02210160C81EBDE8F09F6A
:1020B00048EA0640FAE700002DE9F0478146164657
:1020C0008AB0354878440DC88DE80D003248784410
:1020D000801C03AC0DC884E80D0041F69B30084419
:1020E000372190FBF1F290FBF1F5A5F1800501FBA2
:1020F00012041B3C02D56442012000E00020DFF8FE
:1021000098A080460027FA44AAF1BE0A0EE0E00734
:102110000AD03246684607EB470101230AEB8101EA
:1021200000F024FE8DE8070064107F1C002CEED127
:10213000194F7F44AE3F19E0E80715D007EB0410B4
:102140000DF1180A90E80E008AE80E00C068F0420F
:1021500001D1981908903246012306A903A800F07E
:1021600005FE03AB83E807006D10641C002DE3D16E
:102170004FF0010332466946B8F1000F03A802D0C0
:1021800000F0CAFD01E000F0F1FDC9E90001C9F865
:1021900008200AB0BDE8F087107A000070B5164636
:1021A0000C460546FEF7D2FD036893F801010128AD
:1021B00006D0FF2C0FD8185D68B101202C7070BDBF
:1021C000D3F807013246214603F207130344284699
:1021D000BDE8704018474FF0FF3070BD10B500F0FB
:1021E0007BFABDE8104000F072BA70477546FFF701
:1021F000CFFCAE4605006946534620F007008546F1
:1022000018B020B5FEF7DEF8BDE820404FF000061C
:102210004FF000074FF000084FF0000B21F00701CE
:10222000AC46ACE8C009ACE8C009ACE8C009ACE811
:10223000C0098D46704710B5FEF794FD006810BDCB
:1022400010B50446FEF78EFD046010BD3A2800D29A
:10225000303820F02002412A01D3A2F13700884211
:1022600001D34FF0FF3070472DE9FF4F1F464FF06D
:102270003C0987B04FF00042DDE9141001F101087C
:10228000DDF858A002EA40500390002005908346F4
:10229000054604460490B969461E08988847AAF185
:1022A000010A0290BAF1000F3BDD02982E2815D0EA
:1022B0001021FFF7CBFF00282EDB4FF0010B059913
:1022C000014317D0B9F1000F0BDB4A46C11700F0EC
:1022D00031FA05430C43A9F1040905E001200490FB
:1022E0000BE008B145F0010501200590049820B9E4
:1022F000361D02E0049800B1361FB969089808F14C
:1023000001088847BBF1000FAAF1010A0290C9D069
:102310000999C1F80080C5E70298702808D05028B4
:1023200006D0F96908988847BBF1000F14D04FE038
:10233000002002900120BBF1000F049009D0B96980
:10234000089808F101088847AAF10109B9F1000FBE
:1023500007DCF969089888476FF001000BB0BDE809
:10236000F08F2B2804D02D280CD14FF0FF30049093
:10237000B969089808F101088847A9F10109B9F17C
:10238000000FE6DD411CE4D00A21FFF75FFF0028C3
:10239000DFDB029908F1010801EB810100EB41004C
:1023A0000290B969089888470A21FFF74FFF099AF8
:1023B000A9F10109B9F1000FC2F8008001DD002880
:1023C000E7DAF969089888470499029800FB0166E2
:1023D00055EA040004D004F04041090002D006E0B0
:1023E000039898E0A40044EA9574AD00B61E04F08A
:1023F0000041080002D16D196441761E159810F055
:10240000240F03D04FF00B095C4803E04FF028097C
:102410006FF07D008246564507DAAAEB0601894433
:10242000B9F1410F01DD4FF0410901200021A9F16F
:10243000010200F07FF9024628400B462140084384
:1024400001D0012100E00021501E029143F1FF3133
:1024500028402140084301D0012000E000200299DB
:10246000834651EA0B014FD0002108464FF000008F
:10247000039900F4400039B100EB80004FF44001B3
:1024800000EBD07001EA60008015012802DD4FF0FA
:10249000FF3000E013D0401C36D0029860B3BBF18F
:1024A000000F0CD14A460120002100F043F92840DA
:1024B0002140084301D0012000E00020E0B10120CC
:1024C0004A46002100F036F9034640190A466141A8
:1024D0002D1A8C4111D3B9F1400F09DD159810F078
:1024E000240F02D0AAF1340603E0AAF1170600E097
:1024F000761C00254FF0004406E05B1E42F1FF32DF
:1025000020EA030521EA0204CAF10100B04206DA1A
:102510001B49039808430190002000900EE0039AA5
:10252000C4F3D321E80A0A43164940EA44500A4357
:102530003146CDE90002684604F09BFC159810F086
:10254000240F0BD01598C00715D13868DDE90012AB
:10255000031D3B600068C0E900120CE002A8694658
:1025600004F07EFC1598C00705D13868029A011D59
:102570003960006802604046F0E6000002FCFFFFA0
:102580000000F07F0000F03F2DE9FF4F92461D460E
:1025900085B04FF00041DDE9124BDDE914727F1E7A
:1025A00001EA4B50414940F0FF4940EA010800214F
:1025B00022F020004928049102D04E2828D04CE077
:1025C0003BA0012607C88DE80700A9690698641C8E
:1025D00088477F1E014606D41DF8060018B121F079
:1025E000200181420BD0E96906988847032E34D038
:1025F000082E32D06FF0010009B0BDE8F08F761CD4
:10260000032E01D0082EE0D1601CCAF80000DCE7E0
:10261000A9690698641C88477F1E2AD420F02000F0
:10262000412826D1A9690698641C88477F1E20D4BA
:1026300020F020004E281CD1A9690698641C884708
:102640007F1E48F4002849F48009CAF8004001D4EC
:10265000282806D0E969069888475FEACB7012D02F
:1026600022E0A9690698641C88477F1E01D40028CF
:1026700003DAE96906988847BCE72928F1D1641C88
:10268000CAF80040E9E71BF0240F07D02868049936
:10269000031D2B600068C0E9001805E02868021DD2
:1026A0002A600068C0F800902046A5E70000F07F8F
:1026B000494E46494E4954590000000010B50446A1
:1026C000AFF300802046BDE81040FDF706BE0028AD
:1026D00001D000F029B8704710B5012805D00021BD
:1026E00003A000F03AF8012010BD09A1F8E70000AE
:1026F00053494752544D454D3A204F7574206F66EB
:102700002068656170206D656D6F72790000000052
:102710003A2048656170206D656D6F727920636F36
:10272000727275707465640001491820ABBEFEE7D3
:1027300026000200B2F120030AD5C2F1200301FAFB
:1027400002F120FA03F300FA02F041EA03017047B4
:1027500000FA03F14FF00000704770B505460C46D3
:102760000A2000E06D1C00F011F835B1287800282F
:10277000F8D102E0641C00F009F814B120780028B8
:10278000F8D1BDE870400A20AFF3008008B5694673
:102790008DF800000320ABBE08BD5FEA400C08BF07
:1027A00091F0000F4FEA8C234FEAC12243EA5151C6
:1027B0004FEA1C5018BF00F5F0404FEA300018BF38
:1027C00041F000415FEA6C5C00F02980BCF1FF3F02
:1027D00008BF40F080407047130C06BF12044FF052
:1027E000100C4FF0000C130E04BF12020CF1080C79
:1027F000130F04BF12010CF1040C930F04BF9200DD
:102800000CF1020CD30F04BF52000CF1010C114665
:102810004FF00002A0F11F00A0EB0C00704711F078
:10282000004F08BF704731F000413FF4D5AF0B0CAB
:1028300006BF09044FF0100C4FF0000C0B0E04BF44
:1028400009020CF1080C0B0F04BF09010CF1040C78
:102850008B0F04BF89000CF1020CCB0F04BF4900A1
:102860000CF1010CCCF12003A0EB0C0022FA03F3D5
:1028700002FA0CF241EA030100F10100704720F076
:102880007F4C80EA030023F07F47ACEB070303F59E
:102890007C5300F0004003F1FF032DE980494FEA2B
:1028A000154B09B44FEA144325EA0B4E24EA0348BA
:1028B0000FF2042606EB132749083E785FEA32023E
:1028C00003FB0667C7F5000707FB06F64FEA543718
:1028D0004FEAD64606F1020607FB066CCCF1005C17
:1028E0004FEA1C472CEA074C07FB06F40CFB06F5E5
:1028F00004EB15464FEA961634BF00204FF0004017
:102900004FEAD13706FB07FC4FEA1C4C0CFB0BF7D8
:10291000D21B03FB0CF761EB07010CFB0EF7B0EBCE
:10292000074072EB17420CFB08F734BFA2EB0742DB
:10293000B2EB074261EB17414FEA0C444FEA9107B3
:1029400006FB07FC4FEA1C4C0CFB0BF7B0EBC74037
:1029500072EB573203FB0CF734BFA2EBC742B2EB6A
:10296000C74261EB57310CFB0EF7B0EBC70072EBBF
:1029700057720CFB08F734BFA2EBC702B2EBC702D9
:1029800061EB5771039F4FEA816141EA921104EBB9
:10299000CC044FEAD1374FEA826206FB07FC42EAD9
:1029A00090124FEA80604FEA1C4C0CFB0BF7D21BD5
:1029B00003FB0CF761EB07010CFB0EF7B0EB0740D4
:1029C00072EB17420CFB08F734BFA2EB0742B2EBE5
:1029D000074261EB17414FEA8C554FEA910704EB30
:1029E0009C2406FB07FC4FEA1C4C0CFB0BF7B0EBDE
:1029F000C74072EB573203FB0CF734BFA2EBC74260
:102A0000B2EBC74261EB57310CFB0EF7B0EBC700DE
:102A100072EB57720CFB08F734BFA2EBC702B2EBA4
:102A2000C70261EB577115EB4C254FEA816141EA12
:102A300092114FEA82624FEAD13742EA901206FBC6
:102A400007FC44F100044FEA80604FEA1C4C0CFB89
:102A50000BF7D21B03FB0CF761EB07010CFB0EF726
:102A6000B0EB074072EB17420CFB08F734BFA2EB48
:102A70000742B2EB074261EB174115EB1C154FEA19
:102A8000813141EA92414FEA823242EA90424FEA72
:102A900080304FEA0C7644F1000448EA03434EEAE2
:102AA0000B484FF0000EB2EB080C71EB030724BF8C
:102AB000624639464EEB0E0E4FF0000B00185241A5
:102AC00049414BEB0B0BB2EB080C71EB03077BF1AD
:102AD000000B24BF624639464EEB0E0E4FF0000B42
:102AE0000018524149414BEB0B0BB2EB080C71EB58
:102AF00003077BF1000B24BF624639464EEB0E0EF6
:102B000051EA020718BF46F0010616EB0E7655F1A2
:102B1000000254F1000103D5BDE88901BDE8008839
:102B2000BDE88901BDE80048B619524141EB0101F9
:102B3000A3F10103704780807F7E7D7C7B7A79786A
:102B4000777676757473727171706F6E6E6D6C6C72
:102B50006B6A6A6968686766666564646363626114
:102B60006160605F5F5E5E5D5D5C5C5B5B5A5A5995
:102B70005958585757565655555554545353525201
:102B80005251515050504F4F4F4E4E4D4D4D4C4C59
:102B90004C4B4B4B4A4A4A494949484848474747A2
:102BA00047464646454545444444444343434342DF
:102BB000424242414141000046EA0646A3F57053B5
:102BC0004FEA164646EA42564FEAD22242EA4152BC
:102BD00010B54FEAD121A3F1010300F02FF820F046
:102BE000004000F1020C00F0004701EB00501146DC
:102BF000BCF5006F40EA070000D210BDBAF1000F2B
:102C00000AD01CB503B44FF004004FF004014FF09C
:102C100000000FBCBDE810404FF00001BBF1010FF8
:102C2000B9BF04484FF0FF310348002140EA0700D4
:102C300010BD00BFFFFFEF7F0000F07F002B9C4620
:102C400030D477002BD01CB54FEA370703B44FF0D0
:102C500010004FF01001BAF1000F06D0BCF1000FC8
:102C6000DCBF40F0080040F008014FF000000FBC4E
:102C7000BDE810400BF1010BBBF1010F08BF5FEA8B
:102C8000170722BF12F1010211F101014FF00041BB
:102C900043F1000300F0004043EA00007047F9D31D
:102CA0005708D0E746EA064613F1400F4FEA1646AA
:102CB0001FDD13F1200FDFBF16430A46002120332A
:102CC0005B42BED0C3F1200746EA064602FA07F788
:102CD0004FEA164646EA0706C3F1200722FA03F236
:102CE00001FA07F721FA03F14FF0000342EA070265
:102CF000A7E746EA020646EA06464FEA164646EACD
:102D00000106BCBF46EA0646360C4FF000034FF002
:102D100000024FF0000194E72DE9804C9A4693465B
:102D200070B491E8380007C831EA400C48BF34EA73
:102D3000430C03D5FFF7A3FDFFF780FFF0BCBDE810
:102D4000008C2DE9804C9A46934670B491E8380087
:102D500007C831EA400C48BF34EA430C03D5FFF7FB
:102D60008EFDFFF729FFF0BCBDE8008C2DE9804CFB
:102D70009A46934670B491E8380007C810F0804F27
:102D800008BF13F0804F03D100F01AF8FFF756FF89
:102D9000F0BCBDE8008C2DE9804C9A46934670B497
:102DA00091E8380007C810F0804F08BF13F0804F3B
:102DB00003D100F005F8FFF7FFFEF0BCBDE8008C82
:102DC00020F07F4780EA030023F07F4C07EB0C03E1
:102DD000A3F57C5300F00040A3F1FE0392F0000F36
:102DE00000F0B38095F0000F00F077802DE90149E5
:102DF0004FEA11404FEA144621EA004800FB06FC66
:102E000024EA064708FB06F607FB08F800FB07F76D
:102E100018EB06484CEB164C4FEA124B18EB0748E0
:102E20004FEA15464CEB174022EA0B4E0BFB06FC13
:102E300025EA06470EFB06F607FB0EFE0BFB07F71F
:102E40001EEB064E4CEB164C4FF000061EEB074EE9
:102E50004CEB174B18EB0B0840F1000018EB0E0B76
:102E600058EB000840F100008F1A4FF000013CBF02
:102E7000C943661B14BFB5EB040C00213CBFC9431A
:102E8000F61B4FEA17444EEA8E0E27EA04454FEA36
:102E90001C4704FB07622CEA074C05FB07F70CFBF9
:102EA00005F604FB0CFC16EB074642EB174216EB4B
:102EB0000C4642EB1C421BEB060658EB020241415A
:102EC00046EA9E0601D5BDE80189B619524141EB9B
:102ED0000101A3F10103BDE801894FEA14454FEA5E
:102EE000114724EA054621EA074C05FB07F406FBD7
:102EF00007F70CFB06F105FB0CFC11EB074144EB5B
:102F000017444FEA124711EB0C4144EB1C4422EAF0
:102F1000074C05FB07F206FB07F70CFB06F605FB63
:102F20000CFC16EB074642EB174216EB0C4642EB45
:102F30001C456A1854F1000148BF7047B619524148
:102F400041EB0101A3F10103704795F0000F37D069
:102F50004FEA11424FEA144721EA024624EA074C9D
:102F600002FB07F106FB07F70CFB06F402FB0CFC67
:102F700014EB074441EB17414FEA154714EB0C449F
:102F800041EB1C4125EA074C02FB07F506FB07F75E
:102F90000CFB06F602FB0CFC16EB074645EB17454F
:102FA00016EB0C4645EB1C42121951F1000148BFCB
:102FB0007047B619524141EB0101A3F1010370477B
:102FC0004FEA14454FEA114724EA054621EA074C27
:102FD00005FB07F106FB07F70CFB06F24FF00006B6
:102FE00005FB0CFC12EB074241EB174112EB0C42C4
:102FF00051EB1C4148BF7047921841EB0101A3F10E
:1030000001037047FEE70000014800F063BA0000CA
:10301000900A0020014800F05DBA0000F00A00208C
:1030200001681823CAB2103AB2FBF3F2054B6FF3F2
:103030000901032A9B5CC36500D9091D8165084607
:1030400070470000D099000810B5014600208B6938
:103050008A6A4FF0C07453B1B3F5005F15D072B1F6
:10306000012A0CD0022A0AD0032A09D104E01AB19D
:10307000012A06D0022A03D1C96AC90100D501205C
:1030800010BDC96AA142FAD010BD002AF7D0012AAA
:10309000F2D0022AF3D0032AF3D010BD30B5046871
:1030A000256825F480252560046863608368402BCB
:1030B000036803D099600068C26030BD9A60006800
:1030C000C16030BD7047000010B580210348FDF796
:1030D000AFFD03490020088010BD00006C540020A3
:1030E000D000002010B5044600F086F958B90AA1B6
:1030F0000B48FDF7A2FC30B13A21FDF782FC002815
:1031000000D0401C10BD052000F056FB2046641E78
:10311000A4B2E9D210BD00004950442C00000000C8
:103120006C54002030B587B014216846FDF7A2FD2D
:1031300044480021026842F00402026000684FF433
:10314000804400F00400009405900120CDE90101C5
:1031500003203D4D03906946284600F03FFB0022C6
:103160002146284600F032FCFA2000F025FB01221F
:103170002146284600F02AFC4FF4FA74204600F05D
:103180001BFBFFF7A1FF31A1324803F00DFD02E068
:10319000204600F011FB30A130A000F0E5F8002837
:1031A000F6D130A12B4803F0FFFC2DA130A000F098
:1031B000DBF8204600F000FB29A130A000F0D4F895
:1031C000204600F0F9FA31A1224803F0EDFC02E0BC
:1031D000204600F0F1FA20A12FA000F0C5F8002849
:1031E000F6D131A11B4803F0DFFC02E0204600F0DD
:1031F000E3FA19A130A000F0B7F80028F6D132A107
:10320000144803F0D1FC02E0204600F0D5FA31A1C9
:1032100032A000F0A9F80028F6D13CA10D4803F037
:10322000C3FC02E0204600F0C7FA3CA13DA000F03C
:103230009BF80028F6D146A1064803F0B5FC07B07C
:1032400030BD00003038024000080240312E2041DD
:10325000540D0A00080A00204F4B000041540D0A8B
:1032600000000000312E205253540D0A00000000CF
:1032700041542B5253540D0A0000000041542B437B
:103280004950434C4F53450D0A000000322E204355
:10329000574D4F44450D0A0041542B43574D4F4461
:1032A000453D310D0A000000332E2041542B435779
:1032B000444843500D0A000041542B4357444843AF
:1032C000503D312C310D0A00342E2043574A4150D5
:1032D0000D0A0000474F54204950000041542B4331
:1032E000574A41503D223344E68993E58DB0E58D40
:1032F0008FE4BC9A222C2273616E646964617969DF
:103300006E32303231220D0A00000000352E20438B
:10331000495053544152540D0A000000434F4E4E41
:103320004543540041542B43495053544152543D5A
:1033300022544350222C2262726F6B65722E656D8F
:1033400071782E696F222C313838330D0A00000055
:10335000362E204553503832363620496E69742057
:103360004F4B0D0A0000000070B50E460546C824FC
:10337000FDF775FB82B229460B4803F02BFC0EE0EB
:1033800000F03AF840B931460848FDF756FB18B14D
:10339000FFF79AFE002070BD0A2000F00DFA641EAF
:1033A000E4B2EDD2012070BD4C0A00206C54002024
:1033B00030B589B00C460546FFF786FE224608A1C7
:1033C0006846FDF761F90AA16846FFF7CDFF0028BE
:1033D00004D122462946074803F0FCFB09B030BD62
:1033E00041542B43495053454E443D25640D0A003A
:1033F0003E0000004C0A00200648018831B1428896
:10340000914205D100210180084670470120704794
:103410004180FBE7D000002072B6FEE72DE9F041C5
:103420000446876D00F0D8FA064694F8350000256A
:10343000022806D08020606584F834500120BDE861
:10344000F0812068016821F016010160206841695F
:1034500021F080014161206C08B9A06C20B1206886
:10346000016821F0080101602068016821F0010174
:1034700001600CE000F0B0FA801B052807D920207D
:103480006065032084F8350084F83450D7E720685D
:103490000068C007EED194F85C103F208840B86007
:1034A000012084F8350084F834500020C7E790F8F4
:1034B0003510022903D08021416501207047052184
:1034C00080F835100068016821F0010101600020DA
:1034D000704700002DE9F84304464FF00009CDF88D
:1034E000009063484FF41651A56D0068B0FBF1F7EA
:1034F0002E6894F85C10082000FA01F131420FD0D8
:1035000021680A6852070BD50A6822F004020A6093
:1035100094F85C108840A860606D40F00100606520
:1035200094F85C104FF0010808FA01F0304208D01E
:1035300021684969090604D5A860606D40F0020061
:10354000606594F85C1004208840304208D02168FF
:103550000968890704D5A860606D40F004006065C3
:1035600094F85C1010208840304218D02168096817
:10357000090714D5A86020680168490304D50068CC
:10358000000308D5A16C07E00168C90503D40168F0
:1035900021F008010160216C09B12046884794F8A8
:1035A0005C1020208840304231D021680968C9066B
:1035B0002DD5A86094F8350005282068016806D04C
:1035C000490347D5006800031DD4616C1CE021F05D
:1035D000160101602068416921F080014161206C81
:1035E00008B9A06C20B12068016821F008010160D1
:1035F00094F85C103F208840A86084F8358084F8F7
:103600003490216D1FE0E16B09B120468847606D61
:1036100000282BD0606DC00714D0052084F8350039
:103620002068016821F0010101600098401C0090B1
:10363000B84203D820680068C007F6D184F8358006
:1036400084F83490E16C002910D001B02046BDE828
:10365000F04308470168C905D5D4016821F010017D
:10366000016084F8358084F83490CCE7BDE8F883B5
:10367000440000202DE9F041044600F0ADF9064673
:103680005CB1022084F83500002584F834502068AD
:10369000016821F0010101600DE00120BDE8F08129
:1036A00000F09AF9801B052805D9202060650320C9
:1036B00084F83500F2E720680068C007F0D122687E
:1036C000116820480140D4E901031843D4E90336C6
:1036D0003343184363691843A3691843E3691843E4
:1036E000236A18430843616A042903D1D4E90B1300
:1036F00019430843106020684069666A20F007019A
:1037000030460E43012704280CD1A06A0643E06A24
:1037100040B12046FFF798FC20B14020606584F856
:103720003570BAE7206846612046FFF779FC94F8C7
:103730005C203F2191408160656584F835700020F0
:10374000ACE700003F8010F02DE9F0410446866DA3
:1037500090F83400002501280DD0012084F83400B1
:1037600094F835700020012F07D084F8340002252A
:103770002846BDE8F0810220FBE7022784F8357077
:1037800060652046FFF78AFC94F85C103F20884073
:10379000B0602068016841F016010160206C20B122
:1037A0002068016841F0080101602068016841F06B
:1037B00001010160DCE7000070B5044600F00CF97F
:1037C0000546601C02D004480078044400F004F967
:1037D000401BA042FAD370BD380000202DE9F84FFD
:1037E000DFF8B8A10022012403254FF00F090AF1E8
:1037F000040BAAF1040E00BF0B6804FA02F6334072
:10380000B34273D10F7907F00307012F01D0022FC4
:1038100016D187684FEA420805FA08FC27EA0C0728
:10382000D1F80CC00CFA08FC4CEA070CC0F808C030
:103830004768B7430E79C6F3001696403E4346608C
:103840000E79F643B6070DD0C768560005FA06FC98
:1038500027EA0C07D1F808C00CFA06FC4CEA070C62
:10386000C0F80CC00E7906F00306022E10D1D6085F
:1038700000EB8608D8F8206057074FEAD76C09FAA2
:103880000CF7BE430F6907FA0CF73743C8F82070EE
:1038900006684FEA420C05FA0CF7BE430F7907F0B1
:1038A000030707FA0CF7374307604E6816F4403FEA
:1038B0006DD03B4E376847F480473760366822F05A
:1038C000030706F480460096364E07EB060CDCF83C
:1038D000086897073F0F09FA07F826EA0806DFF895
:1038E000C880404503D14FF000081EE04FE0DFF8EC
:1038F000BC80404502D14FF0010816E0DFF8B080EF
:10390000404502D14FF002080FE0DFF8A8804045A3
:1039100002D14FF0030808E0DFF89C80404502D157
:103920004FF0040801E04FF0070808FA07F848EAEA
:103930000608CCF80888DAF800605746D1F804C0C9
:103940009E435FEACC2C00D51E433E60DBF800604E
:103950005F46D1F804C09E435FEA8C2C00D51E431D
:103960003E60DEF800607746D1F804C09E435FEA0F
:103970008C3C00D51E433E60084F083F3E68D1F89E
:1039800004C09E435FEACC3C00D51E433E60521CFF
:10399000102AFFF431AFBDE8F88F0000083C014069
:1039A0004438024000300140000002400004024060
:1039B00000080240000C024000100240426921EA67
:1039C00002030A4043EA0241816170470AB1816102
:1039D00070470904FBE70000014880687047000059
:1039E00038000020024881680278114481607047E5
:1039F000380000200B4810B5016841F400710160E7
:103A0000016841F480610160016841F480710160E6
:103A1000032000F08DF80F2000F006F800F03EF8CB
:103A2000002010BD003C024010B5014688B00022C5
:103A30001A2000F05DF81A2000F04CF8134800241A
:103A4000016841F480210160006805A900F480202C
:103A50000690684600F018F900F046F90C490D4A46
:103A6000B0FBF1F10C48491E026040F2E732C0E9B8
:103A70000324C0E9011400F06FFB10B1012008B06D
:103A800010BD054800F0BEFBF9E7000044380240D5
:103A900040420F0000480140500B00200C4882B00B
:103AA000016841F480410160006800F480400090AA
:103AB0000748001F016841F0805101600068002242
:103AC00000F0805000900F21901E02B000F010B85E
:103AD00044380240002809DB00F01F020121914018
:103AE0004009800000F1E020C0F80011704700009C
:103AF000F0B40E4B1B680C46C3F30223C3F1070559
:103B0000042D00D90425191D072901D2002300E046
:103B1000DB1E012606FA05F1491E214099409E4010
:103B2000761E16403143F0BC03F070B80CED00E097
:103B3000064900F0070208684FF6FF03184040EA04
:103B40000220034A10430860704700000CED00E0BB
:103B50000000FA052DE9F0470E46050065D0DFF8B4
:103B60001481D8F80000F7B200F00700B04207D285
:103B700088F80070D8F8000000F00700B04254D177
:103B800028683D4C810712D5400703D5206840F4D2
:103B9000E05020602878000703D5206840F460409A
:103BA00020602068A96820F0F00008432060287891
:103BB000C0072DD0304968680839012812D0022882
:103BC00013D0032811D00968890700292DDA21684C
:103BD00021F0030101432160FFF7FEFE814641F21F
:103BE000883A0EE009688903EFE709688901ECE784
:103BF000FFF7F2FEA0EB0901514502D90320BDE811
:103C0000F0872068696800F00C00B0EB810FEFD1FD
:103C1000D8F80010404601F00701B14207D90770FB
:103C2000006800F00700B04201D00120E7E72878E3
:103C3000400705D52068E96820F4E050084320607B
:103C40002878000706D52068296920F4604040EAFA
:103C5000C100206000F058F82168084AC1F3031140
:103C6000515CC8400649086006480068FFF7DCFE62
:103C70000020C4E7003C024008380240D899000800
:103C8000440000203C0000200F2202600C4A136810
:103C900003F003034360136803F0F00383601368C9
:103CA00003F4E053C36012684FF4E05303EAD20216
:103CB00002610448006800F00700086070470000D7
:103CC00008380240003C0240044805490068096881
:103CD000044AC1F38221515CC8407047440000206F
:103CE00008380240E8990008044805490068096856
:103CF000044AC1F34231515CC8407047440000207F
:103D000008380240E8990008154810B5006810F01E
:103D10000C02144813D01449042A0FD0082A0ED1DB
:103D20000F4C241F2268236802F03F025B0207D574
:103D30002068C0F38810A0FB010106E0084610BD12
:103D40002168C1F38811A1FB00010023FCF7FEFBF1
:103D50002168C1F30141491C4900B0FBF1F010BDDD
:103D6000083802400024F40040787D012DE9F84F26
:103D700004006ED02078DFF84C93C007A9F1040549
:103D80004AD009F104000168C1F38101012908D07A
:103D90000068C0F3810002280AD1D9F8000040026F
:103DA00006D52868800337D560680028E1D033E065
:103DB0006068B0F5803F10D0B0F5A02F286810D013
:103DC00020F480302860286820F480202860606813
:103DD000A8B1FFF701FE06460DE0286840F48030E8
:103DE000F4E740F480202860F7E700BFFFF7F4FD18
:103DF000801B642873D828688003F7D50CE0FFF790
:103E0000EBFD064605E000BFFFF7E6FD801B6428DA
:103E1000F0D828688003F7D42078DFF8AC828007D8
:103E20004FF0000A3ED5A748001D016811F00C0FA5
:103E300008D00068C0F3810002280BD1D9F8000037
:103E4000400207D42868800716D5E068012800D111
:103E500012E033E1E068B8B10120C8F80000FFF7D4
:103E6000BBFD064605E000BFFFF7B6FD801B02283C
:103E7000C0D828688007F7D52868216920F0F800A5
:103E800040EAC10028600DE0C8F800A0FFF7A4FDDB
:103E9000064604E0FFF7A0FD801B02281FD8286813
:103EA0008007F7D42078000722D5864F87486169BC
:103EB000703771B101210160FFF78EFD064604E005
:103EC000FFF78AFD801B022809D838688007F7D5DC
:103ED0000EE0C0F800A0FFF77FFD064605E082E097
:103EE000FFF77AFD801B02287DD838688007F7D459
:103EF0002078400768D5DFF8CCB100270BF13C0BE8
:103F0000DBF80000C0000BD4DBF8001041F080515A
:103F1000CBF80010DBF80000012700F08050009083
:103F20006B4E3068C00510D4306840F4807030604B
:103F3000FFF752FD009005E0FFF74EFD0099401A93
:103F4000022850D83068C005F6D55E4EA0686C36A1
:103F500001280FD00528306810D020F00100306013
:103F6000306820F004003060A068B8B1FFF734FD7D
:103F700000900FE0306840F00100F4E740F00400EA
:103F80003060F7E7FFF728FD0099411A41F28830C9
:103F9000814266D830688007F4D50EE0FFF71CFD3B
:103FA000009007E0FFF718FD0099411A41F28830B0
:103FB000814256D830688007F4D42FB1DBF8001066
:103FC00021F08051CBF80010A069C8B33D49091D0C
:103FD0000968C1F3810102294AD00228504607D05E
:103FE000C8F8600000E03CE0FFF7F6FC04463BE068
:103FF0004746C8F86000FFF7EFFC064605E000BF43
:10400000FFF7EAFC801B02282BD828688001F7D430
:10401000D4E907010843A16A2E4A490802EB01418D
:10402000626A41EA8211084394F82C1040EA016167
:10403000C9F8001001203866FFF7CEFC044606E000
:104040003EE000BFFFF7C8FC001B022809D8286823
:104050008001F7D534E000BFFFF7BEFC001B02284B
:1040600002D90320BDE8F88F28688001F4D427E046
:104070000128F7D0D9F80000E26900F480019142EC
:104080001CD1226A00F03F01914217D147F6C0715E
:10409000626A0140B1EB821F10D1A26A4FF0FF3378
:1040A00000F4403103EB5202B1EB024F06D194F819
:1040B0002C1000F07060B0EB016F01D00120D1E74F
:1040C0000020CFE70438024000004742800E4742FC
:1040D000007000400000FFFF7047704770B590F817
:1040E0003C20012A2CD0012480F83C40022280F898
:1040F0003D2003685A689D6822F070060A683243C2
:104100005A60104B02689A420ED0B2F1804F0BD029
:104110000D4B9A4208D00D4B9A4205D00C4B9A4257
:1041200002D00C4B9A4204D1496825F08003194310
:10413000916080F83D40002180F83C10084670BD39
:10414000022070BD00000140000400400008004053
:10415000000C00400040014010B5040003D094F86A
:104160003D0010B107E0012010BD002084F83C00A4
:10417000204600F01FF8022084F83D00211D206831
:1041800002F048F9012084F8460084F83E0084F8E3
:104190003F0084F8400084F8410084F8420084F82D
:1041A000430084F8440084F8450084F83D00002072
:1041B00010BD000008B501681048B1F1804F0BD068
:1041C0000F4A914207D1016841F00801016000687F
:1041D00000F00800009008BD016841F00101016095
:1041E0000068002200F00100009006211C20FFF76B
:1041F0007FFCBDE808401C20FFF76CBC4038024043
:10420000000C004090F83D10012901D001207047BA
:10421000022180F83D100168CA6842F00102CA60BC
:1042200000680E4988420ED0B0F1804F0BD00C4987
:10423000884208D00B49884205D00B49884202D0F9
:104240000A49884204D1816801F00701062903D098
:10425000016841F001010160002070470000014049
:104260000004004000080040000C004000400140F5
:1042700070B5044690F83C000025012817D00126AF
:1042800084F83C60022084F83D002068826822F0B7
:10429000770222F47F4282600868502838D00DDC13
:1042A00020284FD005DC90B3102811D14AE002201D
:1042B00070BD302846D040280AD13BE060282FD07E
:1042C00070280DD0B0F5805F03D0B0F5005F12D03C
:1042D000012584F83D60002084F83C00284670BD2C
:1042E000CB68D1E90121206802F0EDF820688168EF
:1042F00041F0770109E0CB68D1E90121206802F0A3
:10430000E2F82068816841F480418160E1E719E0CA
:10431000CA684968206802F08BF95021206806E0DD
:10432000CA684968206802F094F96021206802F0A8
:10433000D4F8CEE7CA684968206802F079F94021CC
:104340002068F4E7226801461046F0E72DE9F041C5
:104350000D46040003D094F83D0018B108E0012098
:10436000BDE8F081002084F83C00204600F040F8D1
:10437000022084F83D002068816844F207029143DE
:104380008160211D206802F045F8226890689169DB
:10439000166A2B68AF69034340F20330814341EA58
:1043A0000721A868EF6908434FF6FC418843E96894
:1043B00040EA0720014328692F6A000140EA0730DC
:1043C000084369686D6926F0AA0646EA051529437F
:1043D00093602268906154F8460B0162012004F852
:1043E0001F09E0752076E0762077A0750020B7E7FA
:1043F000F0B587B0044614216846FCF73BFC294819
:10440000274F266827491038C0250222012303249C
:10441000BE421FD10E6846F002060E60096801F028
:1044200002010591016841F001010160006801AEDF
:10443000009586E81C0000F00100CDE904206946E3
:104440001948FFF7CBF9002205211D20FFF750FB8B
:104450001D2021E0154FBE4220D10E6846F0040613
:104460000E60096801F004010591016841F0020144
:104470000160006801AE009586E81C0000F00200B3
:10448000CDE9042069460A48FFF7A8F90022052172
:104490001E20FFF72DFB1E20FFF71CFB07B0F0BD11
:1044A0000004004040380240000002400008004084
:1044B0000004024070B590F83E60044690F83F500A
:1044C00090F8423090F84320022021B104290ED008
:1044D000012E1BD114E0012E18D1012B16D184F826
:1044E0003E0084F8420001220021206820E0012DD6
:1044F0000CD1012A0AD184F83F0084F8430014E06B
:10450000012D03D1012B01D1012A01D0012070BD61
:1045100084F83E0084F83F0084F8420084F84300A9
:1045200001220021206801F0C1FF0122042120683E
:1045300001F0BCFF2068016841F00101016000202A
:1045400070BD704770B50446006801694FF0000502
:10455000C943890715D4C168C943890711D4E91E25
:10456000016101202077206880698007204602D001
:10457000FFF7E7FF04E000F0C1F8204600F053F930
:10458000257720680169C943490717D4C168C94321
:10459000490713D46FF004010161022020772068DD
:1045A000806910F4407F204602D0FFF7CAFF04E084
:1045B00000F0A4F8204600F036F92577206801695C
:1045C000C943090716D4C168C943090712D46FF05B
:1045D00008010161042020772068C0698007204617
:1045E00002D0FFF7AEFF04E000F088F8204600F0AC
:1045F0001AF9257720680169C943C90617D4C1682B
:10460000C943C90613D46FF0100101610820207757
:104610002068C06910F4407F204602D0FFF791FF68
:1046200004E000F06BF8204600F0FDF825772068E4
:104630000169C943C90708D1C168C943C90704D181
:10464000891E0161204600F047F920680169C943CD
:10465000090609D4C168C943090605D46FF0800171
:1046600001612046FFF738FD20680169C94349060A
:1046700009D4C168C943490605D46FF040010161FE
:10468000204600F08FF920680169C94389060BD4E0
:10469000C168C943890607D46FF020010161204633
:1046A000BDE87040FFF719BD70BD000010B586B0C1
:1046B000044614216846FCF7DDFA0D49206888425B
:1046C00014D10C480021026842F001020260006827
:1046D00000F001000590032000900220CDE90101C7
:1046E000CDE9031069460448FFF778F806B010BD1D
:1046F000000C00403038024000000240704770B5A6
:10470000044690F83C0000260D4601280FD00120F9
:1047100084F83C006AB1042A1DD0082A2FD00C2A44
:104720003FD00126002084F83C00304670BD0220B6
:1047300070BD206801F0DAFE2068816941F008014F
:1047400081612068816921F00401816120688169AB
:104750002A69114311E0206801F0F0FE20688169A8
:1047600041F4006181612068816921F48061816187
:10477000206881692A6941EA02218161D2E72068C3
:1047800001F008FF2068C16941F00801C16120689B
:10479000C16921F00401C1612068C1692A6911431E
:1047A00011E0206801F022FF2068C16941F4006136
:1047B000C1612068C16921F48061C1612068C1695B
:1047C0002A6941EA0221C161ACE710B5040003D0B7
:1047D00094F83D0010B107E0012010BD002084F8DE
:1047E0003C00204600F01EF8022084F83D00211D08
:1047F000206801F00FFE012084F8460084F83E0096
:1048000084F83F0084F8400084F8410084F84200B6
:1048100084F8430084F8440084F8450084F83D009F
:10482000002010BD7047704710B50446022249B100
:1048300004290ED0082913D094F84100012816D07D
:10484000012010BD94F83E000128F9D184F83E20E3
:104850000FE094F83F000128F2D184F83F2008E0EF
:1048600094F840000128EBD184F8402001E084F85E
:1048700041200122206801F019FE12492068884277
:1048800003D1426C42F400424264206888420ED058
:10489000B0F1804F0BD00C49884208D00B498842B8
:1048A00005D00B49884202D00A49884204D1816868
:1048B00001F00701062903D0016841F00101016000
:1048C000002010BD0000014000040040000800402E
:1048D000000C00400040014038B504460068204903
:1048E000884201D1FFF77EF800251E4800958442DA
:1048F00035D11D480368586A1C4C1D4A01B2A1619C
:104900001068406A00B2E0615D6212685562226917
:10491000114421616169084460612078401CC0B283
:10492000207005281BD902211248FFF747F81248CA
:104930006946006804F09FF9009838B10F494FF0BC
:1049400080500860BFF34F8FBFF36F8FE388A2885A
:104950000BA1134802F028F925616561257038BD67
:1049600000480140E80000207801002000000020FD
:1049700030010020000C02402C00002004ED00E07B
:1049800050574D5F6C656674203D2025642050575C
:104990004D5F7269676874203D202564200D0A0010
:1049A000080A00207047704710B504460068406947
:1049B00094F83D10C0F3C010212911D180B12068B6
:1049C000143050E8001F21F0800140E80012002A56
:1049D000F5D1606B08B1FEF721FD204601F032FFF2
:1049E0002068406994F83E10C0F38010222911D14C
:1049F00080B12068143050E8001F21F0400140E8E9
:104A00000012002AF5D1A06B08B1FEF707FD204681
:104A100001F0F1FE002010BD70470000F8B50168FC
:104A200004460868CA684B6910F00F0F4FF0000584
:104A300059D003F0010602F49077374365D0C107DF
:104A400005D0D10503D5216C41F001012164410756
:104A500005D5D90703D0216C41F0020121648107FB
:104A600005D5D90703D0216C41F004012164010769
:104A700007D502F02001314303D0216C41F0080139
:104A80002164216C00293AD0800604D5900602D515
:104A9000204601F0E5FE20684069216CC0F38010DB
:104AA000090700D460B3204601F0A5FE20684069E4
:104AB000400621D52068143050E8001F21F0400145
:104AC00040E80012002AF5D1A06BA8B16C4901653D
:104AD000A06BFEF7ECFC002811D0A06B016D01B0BB
:104AE000BDE8F040084783060FD593060DD5204654
:104AF000BDE8F84001F0B4BE2046FFF78DFFF8BDD9
:104B00002046FFF789FF2564F8BD266B2023012E80
:104B100079D1C60677D5D60675D50868486800905D
:104B20004869400640D5A16B086840680004000C45
:104B3000EAD0A28D8242E7D9E085C869B0F5807FCE
:104B40002DD020680C3050E8001F21F4807140E81F
:104B50000012002AF5D12068143050E8001F21F01F
:104B6000010140E80012002AF5D12068143050E815
:104B7000001F21F0400140E80012002AF5D184F81E
:104B80003E30256320680C3050E8001F21F01001F2
:104B900040E80012002AF5D1A06BFEF73FFCA08D83
:104BA000E18D401A81B229E0A08DE18D401A81B2D9
:104BB000E08D0028A8D00029A6D020680C3050E84D
:104BC000002F22F4907240E80026002EF5D12068D4
:104BD000143050E8002F22F0010240E80026002E99
:104BE000F5D184F83E30256320680C3050E8002F62
:104BF00022F0100240E80023002BF5D12046FFF7F9
:104C0000D2FEF8BDFFE705062BD5150629D594F889
:104C10003D002128F5D1A068B0F5805F01D1206961
:104C2000B0B1206A411C2162216800784860E08CA4
:104C3000401E0004000CE084E3D12068C16821F02C
:104C40008001C1602068C16841F04001C160D8E7BF
:104C5000206A0088C0F308004860206A801C206237
:104C6000E5E74006CDD55006CBD5CA68204622F0F0
:104C70004002CA6084F83D3000F03FF9C1E700000F
:104C80000167000870B5040004D094F83D000025C9
:104C900010B106E0012070BD84F83C50204600F0C1
:104CA00023F8242084F83D002068C16821F40051D5
:104CB000C160204601F034FE2068016921F4904172
:104CC00001612068416921F02A0141612068C168C1
:104CD00041F40051C1602564202084F83D0084F82F
:104CE0003E00002070BD00002DE9F04186B0064670
:104CF00014216846FBF7BEFFDFF804C13168414864
:104D0000022203230727404D002461451DD13D4960
:104D100014310E6846F010060E60096801F01001AB
:104D20000591016841F0010101600068694600F0E9
:104D30000100059058028DE81500CDE9033728469B
:104D4000FEF74CFD06B0BDE8F081DFF8C0C061455C
:104D5000F8D12C491031D1F800C04CF4003CC1F816
:104D600000C0096801F400310591016841F00101BA
:104D700001600068694600F0010005900C208DE894
:104D80001500CDE903372846FEF728FD214D2048C0
:104D90004FF000672860C5E901744FF48068C5E9E9
:104DA000034880156C61C5E906402C6228466C6298
:104DB000FEF760FC08B1FEF72FFBB563AE63154D3F
:104DC000134860351830E5E802074020A5E81101D6
:104DD000104845F814496030AC61EC612C626C629B
:104DE000FEF748FC08B1FEF717FB756300220821A7
:104DF0002620AE63FEF77CFE2620FEF76BFEA1E7C1
:104E000000100140303802400000024000440040E1
:104E100088600240900A002090F83E30202B0ED18E
:104E200059B152B190F83C30012B08D0012380F8E1
:104E30003C300023036301F0F9BD012070470220DC
:104E400070477047704700002DE9F843044690F81A
:104E50003D001F4616460D4620284CD1C5B1BEB1B7
:104E600094F83C00012846D0012084F83C004FF023
:104E70000008C4F84080212084F83D00FEF7ACFD16
:104E8000A6848146E684A068B0F5805F03D004E084
:104E90000120BDE8F883206928B12E465FF00005A7
:104EA00084F83C800EE00026FAE78021204601F0DD
:104EB00007FEA0B9AEB116F8010B21684860E08C7E
:104EC000401EE084E08C4B464FF000020097002823
:104ED000EBD14FF04001204601F0F2FD30B103204C
:104EE000D7E735F8020BC0F30800E6E7202084F886
:104EF0003D000020CDE70220CBE77047FEE710B56C
:104F00000446007B012802D12068FBF79CFA0020B0
:104F100020606060A060207310BD00005FF001029F
:104F200000F07F030B70C00909D043F08003521CCE
:104F300001F8013B042AF3DD4FF0FF3070471046C3
:104F400070472DE9F0410446002500680F462E46C3
:104F500010B10220207315E0012020730846FBF7F2
:104F600043FA2060002808D0C4E9016702E0206805
:104F700046556D1CA068A842F9D8BDE8F0812068AC
:104F800046556D1CA068A842F9D866608842F4D2E4
:104F90002660F2E72DE9FF47174688468146FBF772
:104FA0005EFD84B24046FBF75AFD0026E01DFBF78C
:104FB0001BFA050025D0E11DFBF73AFE12A02246A0
:104FC000016829608088A88049462846FBF723FDB0
:104FD0004046FBF744FD034600200DF1040A012181
:104FE00000908AE88300424629460A2000F042F9F0
:104FF00000B101262846FBF726FA304604B0BDE88A
:10500000F0870120FAE7000024637273702F00001C
:105010002DE9FF5F9A46934600251046DDF844903F
:105020000E9F139CFBF71BFD06B2BBF1000F1FD0B8
:1050300006F111001FFA80F807B10225109868B137
:1050400045F00405FBF70BFDC7B24846FBF707FD2B
:10505000C11901EB0800001D1FFA80F80F9870B10C
:10506000012807D0022808D0022004B0BDE8F09F34
:105070000120FAE745F00C0501E045F0140512980F
:1050800008B145F02405009860B3019850B345F08D
:10509000C0070098FBF7E3FC05460198FBF7DFFC2F
:1050A000291801EB0800001D85B229462046FFF7AC
:1050B00048FF2068C0B12946FBF7BAFDD4E90030AB
:1050C000411C102261601A54D4E900010144681F98
:1050D000FFF724FF00B2002808DA2046FFF70FFF91
:1050E0000520C2E70320C0E70420BEE7616823680B
:1050F0000844411C616000221A54D4E90030421C6B
:10510000042162601954D4E90050421C4D236260AE
:105110002B54D4E90050421C626051232B54D4E933
:105120000030451C542265601A54D4E90050431CD9
:1051300063602A54D4E90030421C62601954D4E9F7
:105140000020411C61601754D4E90030411C4FEA33
:105150001A2261601A54D4E90030421C626003F8DC
:1051600000A0D4E90030411C320A61601A54D4E92D
:105170000020411C61601654D4E900010844324605
:105180005946FBF748FC606830446060780736D5C4
:10519000B9F1000F01D10FF2D8091098FBF75FFCAD
:1051A00085B2D4E90030411C2A0A61601A54D4E95E
:1051B0000020411C61601554D4E9000108442A46CE
:1051C0001099FBF728FC6068284460604846FBF7AC
:1051D00046FC85B2D4E90030411C2A0A61601A54A9
:1051E000D4E90020411C61601554D4E90001084451
:1051F0002A464946FBF70FFC606828446060380681
:1052000018D50098FBF72BFC85B2D4E90030411C7F
:105210002A0A61601A54D4E90020411C61601554C7
:10522000D4E9000108442A460099FBF7F4FB6068C2
:1052300028446060780618D50198FBF710FC85B209
:10524000D4E90030411C2A0A61601A54D4E90020D4
:10525000411C61601554D4E9000108442A460199B3
:10526000FBF7D9FB6068284460600020FDE6000081
:10527000000000002DE9FF4F81B090464FF000067E
:10528000119C0F9A9A465FEA000BB146314608D14D
:10529000012005B0BDE8F08F232816D02B2814D0AC
:1052A000761C0298805D0028F6D141F030070AB1E3
:1052B00047F0010706EB0A050E98AD1C68B10128FE
:1052C00005D0022806D00320E3E70220E1E747F0FB
:1052D000020701E047F00407AD1CB8F1000F03D04E
:1052E00098F80000022807D0691D2046FFF729FE24
:1052F000206850B3691D14E05FF0000018F800103A
:10530000401C7D29FAD100F10409AAEB0900291AF1
:1053100000912046C91CFFF714FE2068A8B100992F
:10532000C91CFBF785FCD4E90020411C61601754BF
:10533000D4E9000101442846FFF7F0FD002806DA11
:105340002046FFF7DCFD0520A3E70420A1E7616804
:1053500023680844411C320A61601A54D4E90020D1
:10536000411C61601654D4E9000108443246029998
:10537000FBF751FB6068304460600E9959B12368B7
:10538000411C4FEA1B2261601A54D4E90030421CD0
:10539000626003F800B0B8F1000F0ED098F800007A
:1053A0000228D4E90001084409D052464146FBF7DF
:1053B000C0FB616801EB0A006060002069E74A46B3
:1053C0004146FBF7B6FB616801EB0900F4E770B5F5
:1053D0000C46054604212046FFF7B3FD2168B9B10C
:1053E00060687023421C62600B54D4E90030411C99
:1053F000022261601A54D4E90030411C2A0A61601B
:105400001A54D4E90020411C61601554002070BD7D
:10541000012070BD70B50C46054604212046FFF7FB
:1054200090FD2168B9B160686223421C62600B5430
:10543000D4E90030411C022261601A54D4E90030E2
:10544000411C2A0A61601A54D4E90020411C6160A1
:105450001554002070BD012070BD2DE9F0474FF0BC
:105460000008089C1F4691468A46060045460AD118
:105470000120BDE8F08759F8250020B3FBF7EFFACB
:105480006D1C8044EDB2BD42F5D307EB470101EB43
:105490000805E91D2046AD1CFFF753FD2168A1B1A9
:1054A00060688222431C63600A54D4E9000101440D
:1054B0002846FFF733FD00B2002808DA2046FFF740
:1054C0001EFD0420D5E70220D3E70320D1E7616861
:1054D00023680844411C320A61601A54D4E9002050
:1054E000411C61601654002520E059F82500FBF7A7
:1054F000B6FA0646020AD4E90030411C61601A542B
:10550000D4E900314A1C62605E54D4E900010844C9
:1055100059F825103246FBF77EFA6068236830445C
:10552000411C61606D1C03F800A0EDB2BD42DCD3EC
:1055300000209EE7F0B50446002001235D051060C1
:1055400012E0275C166807F07F0707FB036616600A
:10555000265C360601D4401CF0BDDB01AB4202D311
:105560006FF00100F0BD401C8842EADB4FF0FF30D5
:10557000F0BD2DE9F8430E4607461D4690462F2103
:10558000801DFBF73EFA0021009150B3441C6A468F
:105590000421781CFFF7CEFF2520FAF725FF3060A5
:1055A00008B32521FBF744FB242221463068FBF792
:1055B000C0FA009824342C3880B22880401CFAF7B6
:1055C00013FFC8F8000080B12988491CFBF730FBA5
:1055D0002A882146D8F80000FBF7ABFA0020BDE886
:1055E000F8830120FBE70220F9E73068FAF72BFF88
:1055F0000320F4E74178022901D001207047817827
:1056000019B1012901D0FF207047C0787047000010
:105610002DE9F84F04460078DDE90A7B00F00F0918
:1056200000200E460090C9F3410115468BF800108A
:10563000984609F0080A6A460421601CFFF77AFFC1
:1056400004440098641C022843D35FEAC97040D127
:10565000208840BA28800099801C88427AD83EA1D0
:10566000A01CFBF7EAF910B10F20BDE8F88F9BF8FA
:10567000000020B101282DD002286BD12AE0BAF118
:10568000000F67D12888401CFAF7AEFE3060002872
:1056900060D02988491CFBF7CBFA2A88A11C306806
:1056A000FBF747FA28880099081A801E80B23880D4
:1056B000401CFAF799FEC8F8000038B13988491C37
:1056C000FBF7B6FA3A882888A41C33E03068FAF76A
:1056D000BAFE3FE02888009A811C91423AD8A11C6A
:1056E00008440C99008840BA08800C9890B3288828
:1056F000401CFAF779FE306060B32988491CFBF73B
:1057000097FA2A88A11C3068FBF713FA28880099B9
:10571000081A001F80B23880401CFAF765FEC8F8EE
:1057200000000028D2D03988491CFBF781FA3A885A
:105730002888241D0119D8F80000FBF7FAF92B215D
:105740003046FBF75EF928B923213046FBF759F9BB
:1057500000288AD0FF2088E724637265710000006A
:105760004178022904D1817811B9C0780A2801D082
:1057700001207047002070474178022904D18178C8
:1057800011B9C0780A2801D0012070470020704765
:105790004178022904D1817811B9C0780A2801D052
:1057A00001207047002070474278022A09D1827890
:1057B000B2EB112F05D1C078C9B2884201D10020C7
:1057C000704701207047000038B504460078FF217B
:1057D0000009421E0E2A01D3084638BD0328FCD119
:1057E000002000906A460421601CFFF7A3FE2044BD
:1057F0000099401C022907D32278D20704D10288DD
:1058000052BA921C8A4201D9FF2038BD04A1801CE3
:10581000FBF713F908B10F2038BD032038BD000095
:1058200024637265710000000146FF208A78002A17
:105830000BD1CA78142A08D1087938B1012805D0CB
:10584000022803D0802803D0022070470020704730
:1058500001207047827801211AB9C0781E2800D132
:1058600000210846704700000D4808B5016841F462
:10587000001101600068002200F400100090072170
:105880001020FEF735F91020FEF724F90022072139
:105890001120FEF72DF9BDE808401120FEF71AB9D6
:1058A0003038024010B50121114A084601F04EFD82
:1058B000104C0F4A0121E0601032084601F046FD0D
:1058C0000B4A20616C3A00210B4801F08BFD084A1D
:1058D0002060483A0021094801F084FD044A6060D4
:1058E000243A0021064801F07DFDA06010BD0000B3
:1058F000B0990008200000200963000879660008BC
:10590000F96600082DE9F04387B014216846FBF7DB
:10591000B1F92C480024016841F0040101600168DC
:1059200001F004010591016841F080010160016806
:1059300001F080010591016841F0010101600168F9
:1059400001F001010591016841F002010160006868
:105950001D4F00F002004FF400550590002229462B
:105960003846FEF733F8DFF86480002230214046E5
:10597000FEF72CF8DFF858904FF4405600223146DD
:105980004846FEF723F80220CDE9020400950125E0
:10599000694601953846FDF721FF30200090CDE99A
:1059A0000154694640460394FDF718FF0096CDE97F
:1059B0000154694648460394FDF710FF07B0BDE85F
:1059C000F08300003038024000080240000002402E
:1059D0000004024010B586B00024174800940194DA
:1059E0000294039404944FF080410594016042F2C4
:1059F000CF01C0E901146321C0E903148021816152
:105A0000FEF7AAFB08B1FDF707FD4FF480500090A8
:105A100069460948FEF72CFC08B1FDF7FDFC04942B
:105A200004A905480594FEF759FB002801D0FDF7AD
:105A3000F3FC06B010BD0000E800002010B58CB0EB
:105A400024216846FBF716F90024164809941449E6
:105A50000A94C0E900144FF6FF71C0E902410461E5
:105A600084610320CDE900040120CDE902040494FF
:105A7000CDE90540079469460A480894FEF766FC9C
:105A800008B1FDF7C9FC099409A906480A94FEF774
:105A900025FB002801D0FDF7BFFC0CB010BD0000B5
:105AA000000400403001002010B58CB0242168466D
:105AB000FBF7E0F800241648099414490A94C0E959
:105AC00000144FF6FF71C0E90241046184610320B4
:105AD000CDE900040120CDE902040494CDE905409C
